:0200000480007A
:1000000093000000130100009301000013020000A0
:100010009302000013030000930300001304000088
:100020009304000013050000930500001306000070
:100030009306000013070000930700001308000058
:10004000930800001309000093090000130A000040
:10005000930A0000130B0000930B0000130C000028
:10006000930C0000130D0000930D0000130E000010
:10007000930E0000130F0000930F0000B7E2010081
:100080009382026073A00230930210009392F201F7
:1000900063CA0200130510009712000023A4A2F601
:1000A0006FF05FFF9702000093820204739052305A
:1000B00097510000938181C513827187137202FCEE
:1000C000732540F1930510006370B500130115000E
:1000D0001311110133014100131615013302C2003F
:1000E0006F201002130101EF2322110023242100AD
:1000F0002326310023284100232A5100232C6100AC
:10010000232E710023208102232291022324A102A5
:100110002326B1022328C102232AD102232CE10283
:10012000232EF1022320010523221105232421057A
:100130002326310523284105232A5105232C610557
:10014000232E710523208107232291072324A10751
:100150002326B1072328C107232AD107232CE1072F
:10016000232EF10773252034F325103413060100E4
:10017000EF20404973101534B722000093820280AB
:1001800073A0023083204100032181008321C1003C
:100190000322010183224101032381018323C10141
:1001A0000324010283244102032581028325C10225
:1001B0000326010383264103032781038327C10309
:1001C0000328010483284104032981048329C104ED
:1001D000032A0105832A4105032B8105832BC105D1
:1001E000032C0106832C4106032D8106832DC106B5
:1001F000032E0107832E4107032F8107832FC10799
:100200001301011173002030630605009301000003
:0C02100073000000930110007300000058
:1010000000000000000000000000000000000000E0
:1010100000000000000000000000000000000000D0
:1010200000000000000000000000000000000000C0
:1010300000000000000000000000000000000000B0
:081040000000000000000000A8
:1020000013070500930600021305000093771700DD
:102010009386F6FF638407003305B5001357174016
:1020200093951500E39406FE678000008325020463
:1020300093070200B387B700938615002380A7009B
:102040002320D2049307A0006302F506930700043F
:102050006386F60013050000678000001303000488
:102060001308000093070000930600001307020006
:10207000B70800FF0345070013861700B385F80073
:10208000B337F600B386D7002380A50013071700E7
:1020900093070600E3E006FF6314D800E36C66FCD8
:1020A00023200204130500006780000013D8F641C6
:1020B000B3E7060113830600E39607FA2320020420
:1020C0006FF05FFE130101EB2324811423202115FF
:1020D000232E3113232C4113232611142322911470
:1020E000232A5113232861132326711323248113D8
:1020F000232291132320A113232EB111930905004C
:1021000013890500130406002326D100130A500288
:102110006F004001630405069305090013041400D1
:10212000E780090003450400E31645FF83461400D9
:10213000930A14009307000213870A002324F10076
:102140009304F0FF130BF0FF930500009387D6FD77
:1021500093F7F70F1306500513041700636EF60686
:10216000172600001306C6B993972700B387C70048
:1021700083A70700B387C700678007008320C114C7
:102180000324811483244114032901148329C113D6
:10219000032A8113832A4113032B0113832BC112BA
:1021A000032C8112832C4112032D0112832DC111A6
:1021B00013010115678000002324D1008346170016
:1021C00013065005130704009387D6FD93F7F70F06
:1021D00013041700E376F6F893050900130550027F
:1021E000E780090013840A006FF0DFF3034617004D
:1021F00093079000938406FD130706FD93060600DF
:1022000063ECE7361307040013059000939724004E
:10221000B38797001307170093971700B387C7007A
:1022200003460700938407FD930706FD9306060007
:10223000E37EF5FCE35C0BF0138B04009304F0FFEA
:102240006FF0DFF083461700130704006FF01FF0F4
:102250009305090013055002E78009006FF09FEC19
:102260008327C100834617001307040083A40700D7
:10227000938747002326F1006FF0DFFB130500036F
:1022800093050900E78009009305090013058007FD
:10229000E78009008327C100930A0001930D000025
:1022A000138747008327C100130C000083A4070095
:1022B0002326E10013860A0093060000138504001C
:1022C00093050C00EF10C0352328A10063828D27F1
:1022D000930B4101930C100013860A009306000033
:1022E0001385040093050C00EF00505713860A0075
:1022F0009306000093040500138C0500EF10403294
:1023000023A0AB00138D0C00938B4B00938C1C000F
:10231000E3948DFDE3F254FD930AFBFF9384FCFFED
:1023200063DC6C0103258100938AFAFF93050900A1
:10233000E7800900E39854FF93172D009387070166
:10234000B38A2700930490006F008000138D07006C
:1023500003A50A0093050900938ACAFFB3B7A40036
:10236000B307F04093F77702938707033305F5002F
:10237000E78009009307FDFFE31A0DFC6FF09FDA79
:102380009307100063CEB71A8327C10083A4070008
:10239000938747002326F10013DCF44163500C02BD
:1023A000930509001305D002E78009003337900038
:1023B000B3078041B3049040338CE740930AA000F8
:1023C000930D00006FF01FEF8346170093851500F3
:1023D000130704006FF09FD7930A0001930D0000CC
:1023E0009307100063C6B7128327C1001387470005
:1023F0006FF05FEB8327C10083AA0700938B470030
:1024000063820A066354600D032781009307D0029C
:10241000631EF70603C50A0063080502130CF0FFEC
:1024200063C604009384F4FF638E8401930509005E
:10243000938A1A00E780090003C50A00130BFBFF0B
:10244000E31005FE635C6001130BFBFF93050900BD
:1024500013050002E7800900E3180BFE2326710133
:102460006FF05FCC972A0000938A8A85130580025B
:10247000E35660FB032781009307D002972A0000F0
:10248000938A0A8413058002E30AF7F893870A0007
:10249000B3869A00639804006F00000293871700C8
:1024A0006386D70003C70700E31A07FEB3875741C7
:1024B000330BFB40635C600103258100130BFBFFC2
:1024C00093050900E7800900E3180BFE03C50A0025
:1024D000E30605F8130CF0FF6FF09FF49347FBFF42
:1024E00093D7F74183461700337BFB0013070400A3
:1024F0006FF0DFC58327C1009305090003A507001E
:10250000938B4700E7800900232671016FF09FC17C
:102510008327C100938B770093FB8BFF93878B00FE
:1025200083A40B0003AC4B002326F1006FF09FD86F
:10253000E3F054DB130D0000930C10006FF0DFDDAF
:102540008327C100938B770093FB8BFF93878B00CE
:1025500083A40B0003AC4B002326F1006FF01FE4B3
:10256000930AA000930D00006FF09FE7930A80008C
:10257000930D00006FF0DFE6130704006FF09FCBB0
:1025800083A705002380A70083A705009387170072
:1025900023A0F50067800000732700B09727000094
:1025A000938747F7630A050023A0E700732720B04D
:1025B00023A2E7006780000003A60700972600001B
:1025C0009386C6F43307C740171600001306C66F7C
:1025D00023A0C60023A0E700732720B003A647006E
:1025E000971500009385C56E23A2B6003307C74038
:1025F00023A2E70067800000130101FF23261100DA
:10260000EFD09FC0130101FF130590532326110043
:10261000EFD09FBF130101FF23261100EFD0DFBED3
:10262000130101FF1305600823261100EFD0DFBD61
:1026300083470500638A07029307050003C7170055
:1026400093871700E31C07FE6300F502370600FFBF
:102650003306A640834605003307C5001305150061
:102660002300D700E318F5FE678000006310050023
:1026700067800000130101FE9306C1001307B1013A
:10268000130890006F008000138707009377F50010
:10269000B337F800B307F04093F777021376F500ED
:1026A00093870703B387C7002300F7001396C5017C
:1026B000135545009307F7FF3365A60093D54500F2
:1026C000E394E6FC8347C100230E0100638C0702FC
:1026D000138706008347170013071700E39C07FEC4
:1026E0006302D702B70500FF93870600B385D54084
:1026F00003C60700B386B700938717002380C60080
:10270000E318F7FE1301010267800000130101FCCA
:1027100013034102130E05002322B1022324C10238
:102720002326D102170500001305859093060300A8
:1027300013060E0093050000232E11002328E1024A
:10274000232AF102232C0103232E110323266100E7
:10275000EFF05F978320C10113050000130101040E
:1027600067800000130101FB13038103232481020E
:102770002326A100232CC102232ED102130405001D
:1027800013860500170500001305C5DF9305C1007A
:1027900093060300232611022322F1042320E104DF
:1027A0002324010523261105232E6100EFF09F91BC
:1027B0008327C100238007000325C1008320C102B5
:1027C0003305854003248102130101056780000061
:1027D000B367B500B3E7C70093F737003308C50008
:1027E000638407023386C500930705006376050BF3
:1027F00003C705009385150093871700A38FE7FE95
:10280000E398C5FE678000009306050263F8060999
:102810009387060013870500832307008322470060
:10282000832F8700032FC700832E0701032E470144
:10283000032387018328C7019387070223A077FC1E
:1028400023A257FC23A4F7FD23A6E7FD23A8D7FD69
:1028500023AAC7FD23AC67FC23AE17FD13070702AD
:10286000E3EC07FB1306F6FD937706FE938707025A
:10287000137606FEB385F500B387C600E3F407F9C7
:1028800003A70500938747009385450023AEE7FE25
:10289000E3E807FF678000006780000093070500FA
:1028A0006FF0DFFDB367C50093F737003306C5004F
:1028B0006380070293F5F50F930705006370C50465
:1028C00093871700A38FB7FEE39CC7FE67800000C5
:1028D00093F5F50F139785003307B700931707019A
:1028E0003307F700E374C5FE93070500938747009D
:1028F00023AEE7FEE3ECC7FE6780000067800000C0
:10290000130101F697270000938747C1232441094B
:10291000172A0000130A8AC023263109B309FA4096
:10292000232A91082328210993040500138905000F
:10293000130502009385070013860900232E110852
:10294000232C810823225109930A0200EFF05FE84B
:102950001386C187330646419305000033853A014B
:10296000EFF05FF49305090013850400EFF01FD02A
:102970009305000013050000EF1000251729000043
:10298000130949B9832609001304F103137404FCE5
:1029900093040500639406048326490063960600A9
:1029A00013850400EFD05F86130904009729000007
:1029B0009389C9B503A649001305090097150000BE
:1029C00093854533EFF01FDA3309A900E30A24FDAC
:1029D00013050400EFF0DFC56FF09FFC972900009E
:1029E0009389C9B203A60900971500009385853025
:1029F00013050400EFF01FD7832649003309A40014
:102A0000E38606FC6FF01FFB83470500638E07001B
:102A10009307050003C7170093871700E31C07FE01
:102A20003385A74067800000130500006780000021
:102A3000B306B50093070500639805006F004002D8
:102A400093871700638AF60003C70700E31A07FE9F
:102A50003385A740678000003385A640678000006B
:102A6000130500006780000083470500938515006B
:102A70001305150003C7F5FF63880700E386E7FE2B
:102A80003385E74067800000930700006FF05FFF29
:102A90009307050003C7050093871700938515006A
:102AA000A38FE7FEE31807FE6780000003470500D9
:102AB00093060002930705006318D70003C71700A9
:102AC00093871700E30CD7FE9306D0026300D70666
:102AD0009306B0026300D70483C607009305000085
:102AE000638206041305000093871700131725005F
:102AF000138606FD83C607003307A70013171700C8
:102B00003305E600E39206FE638005023305A0402C
:102B10006780000083C617009305000093871700A5
:102B2000E39206FC130500006780000083C61700CF
:102B30009305100093871700E39606FA130500002B
:102B40006FF09FFE130101FC232A9102232E110234
:102B5000232C81022328210323263103232441032C
:102B60002322510323206103232E7101232C810191
:102B7000232A91012328A1012326B10193040000F7
:102B800063DC0500B337A000B305B040B385F54062
:102B90003305A0409304F0FF63DA0600B337C000AA
:102BA000B306D040B386F6403306C040130A060091
:102BB0001304050013890500639606269716000086
:102BC0009386862963FAC514B7070100637CF61261
:102BD0009337061093C71700939737003357F600C3
:102BE000B386E60003C70600B307F7001307000229
:102BF000B309F740630CF700B3953501B357F500FF
:102C0000331A360133E9B70033143501135B0A0177
:102C100093050B00931B0A0113050900EF001070C8
:102C200093DB0B0193850B00EF00906C930A05007A
:102C300093050B0013050900EF00D0721315050171
:102C400093570401B3E7A70063FA5701B307FA00EB
:102C500063E6470163F45701B3874701338957415E
:102C600093050B0013050900EF00506B93850B00D3
:102C7000EF001068930A050093050B001305090087
:102C8000EF00506E131404011315050113540401D1
:102C90003364A400637A540133048A0063664401F8
:102CA00063745401330444013304544133553401F3
:102CB00093050000638A0400B337A000B305B04059
:102CC000B385F5403305A0408320C103032481036D
:102CD00083244103032901038329C102032A8102BA
:102CE000832A4102032B0102832BC101032C8101A2
:102CF000832C4101032D0101832DC1001301010427
:102D0000678000003707000193070001E368E6ECE5
:102D1000930780016FF09FEC13070000630C06001F
:102D2000B70701006376F60E133706101347170036
:102D300013173700B357E600B386F60083C70600C3
:102D40003389C540B387E70013070002B309F74092
:102D5000E30EF7EA331A360133D9F500935B0A0123
:102D6000B357F500B3953501B3EAB7003314350115
:102D700093850B00131B0A0113050900EF00105A7D
:102D8000135B0B0193050B00EF009056130C05002D
:102D900093850B0013050900EF00D05C13150501A6
:102DA00013D70A013367A700637A87013307EA0064
:102DB000636647016374870133074701330C87411A
:102DC00093850B0013050C00EF00505593050B0085
:102DD000EF001052130B050093850B0013050C0038
:102DE000EF00505893970A011315050193D7070177
:102DF000B3E7A70063FA6701B307FA0063E6470188
:102E000063F46701B3874701338967416FF01FE0BF
:102E1000B707000113070001E36EF6F01307800106
:102E20006FF05FF1E3E8D5E8B707010063FEF60451
:102E300093B7061093C717009397370033D8F6005F
:102E4000171700001307470133070701034A07005C
:102E5000330AFA0093070002B3894741639047059C
:102E600063E4B600636CC500B30AC540B386D540C1
:102E7000B335550113840A003389B64013050400A5
:102E8000930509006FF01FE3370700019307000166
:102E9000E3E6E6FA930780016FF05FFAB396360136
:102EA000B35B4601B3EBDB0033DB45013354450133
:102EB000B395350113DC0B013364B40033193501CC
:102EC00093050C0013050B00939C0B01B31A3601FC
:102ED00093DC0C01EF00904493050500930D050071
:102EE00013850C00EF00D040130D050093050C0076
:102EF00013050B00EF00104713150501935704014C
:102F0000B3E7A700138B0D0063FEA701B387FB0097
:102F1000138BFDFF63E8770163F6A701138BEDFFC9
:102F2000B3877701338DA74193050C0013050D007E
:102F3000EF00D03E93050500930D050013850C00AE
:102F4000EF00103B93050C00930C050013050D00DA
:102F5000EF005041931504011315050193D50501A8
:102F6000B3E5A50013870D0063FE9501B385BB0093
:102F70001387FDFF63E8750163F695011387EDFF85
:102F8000B385750137030100131B0B01336BEB0095
:102F90001307F3FF337EEB0033F7EA00B387954165
:102FA000135B0B0193D80A0113050E00930507006C
:102FB000EF001034130805009385080013050E0078
:102FC000EF001033130405009305070013050B00F1
:102FD000EF001032130705009385080013050B005E
:102FE000EF0010313304E400935608013304D40099
:102FF0006374E40033056500B70601009386F6FFAD
:10300000135704013374D400131404013378D80027
:103010003307A7003304040163E6E700639EE7007B
:10302000637C8900B30A5441B3365401B3867601F8
:1030300013840A003307D7403304894033398900A9
:10304000B385E740B3852541339A450133543401B4
:1030500033658A00B3D535016FF0DFC5130101FD7B
:10306000232C4101232611022324810223229102D1
:1030700023202103232E3101232A5101232861011A
:10308000232671012324810123229101130A0500C3
:10309000639406389309060093040500971700000F
:1030A000938787DB63F8C512370701001389050092
:1030B0006378E6101337061013471700131737000D
:1030C000B356E600B387D70083C607003387E60010
:1030D00093060002B387E640638CE6003399F5005F
:1030E0003357EA00B319F60033692701B314FA0025
:1030F00093DA090193850A0013050900139B09015E
:10310000EF00D021135B0B0193050500130A0500A6
:1031100013050B00EF00D01D1304050093850A0072
:1031200013050900EF0010241315050113D704013E
:103130003367A70013090A00637E87003387E9001D
:103140001309FAFF63683701637687001309EAFF02
:10315000330737013304874093850A0013050400C1
:10316000EF00D01B93050500130A050013050B00A3
:10317000EF001018130B050093850A0013050400D7
:10318000EF00501E939404011315050193D404011C
:10319000B3E4A40013070A0063FC6401B38499003C
:1031A0001307FAFF63E6340163F464011307EAFFCF
:1031B00093170901B3E7E700130900006F0000123D
:1031C000B706000113070001E36CD6EE1307800178
:1031D0006FF01FEF13070000630C060037070100B4
:1031E000637CE612133706101347170013173700D6
:1031F000B356E600B387D70083C7070093060002E3
:10320000B387E7003387F6406392F612338AC540EE
:103210001309100013DB090193050B0013050A00C5
:10322000939B0901EF00900F93DB0B0193050500C1
:10323000130C050013850B00EF00900B930A05009B
:1032400093050B0013050A00EF00D01113150501BB
:1032500013D704013367A700130A0C00637E5701DC
:103260003387E900130AFCFF63683701637657016F
:10327000130AECFF330737013304574193050B0062
:1032800013050400EF00900993050500930A05005B
:1032900013850B00EF00D005930B050093050B0081
:1032A00013050400EF00100C93940401131505019D
:1032B00093D40401B3E4A40013870A0063FC7401EF
:1032C000B38499001387FAFF63E6340163F4740151
:1032D0001387EAFF93170A01B3E7E7008320C102CF
:1032E00003248102832441028329C101032A81012D
:1032F000832A4101032B0101832BC100032C810090
:10330000832C41009305090013850700032901025E
:103310001301010367800000B706000113070001D5
:10332000E368D6EC130780016FF09FECB319E60059
:1033300033D9F50093DB0901B395E500B357FA00E3
:10334000B3EAB700B314EA0093850B001305090034
:10335000139A0901EF00807C135A0A0193050500B6
:10336000130B050013050A00EF0080781304050015
:1033700093850B0013050900EF00C07E13150501AE
:1033800013D70A013367A70013090B00637E870078
:103390003387E9001309FBFF636837016376870011
:1033A0001309EBFF330737013304874093850B0084
:1033B00013050400EF00807693050500130B05004C
:1033C00013050A00EF00C072130A050093850B0075
:1033D00013050400EF00007993970A011315050106
:1033E00093D70701B3E7A70013070B0063FE47015C
:1033F000B387F9001307FBFF63E8370163F6470162
:103400001307EBFFB387370113190901338A4741CB
:103410003369E9006FF01FE063EED51EB7070100C6
:1034200063F4F60413B70610134717001317370099
:1034300033D5E60097170000938707A2B387A7004C
:1034400003C80700930700023308E80033890741E7
:103450006396070393071000E3E2B6E8B337CA00A8
:1034600093C717006FF09FE7B7070001130700012C
:10347000E3E0F6FC130780016FF09FFBB396260193
:10348000335B0601336BDB00B3D40501135C0B0126
:1034900033580A01B3952501B369B80013850400B8
:1034A00093050C00931B0B013314260193DB0B01D6
:1034B000EF00C06693050500930C050013850B0013
:1034C000EF000063930A050093050C0013850400C8
:1034D000EF0040691315050193D60901B3E6A60074
:1034E00093840C0063FE5601B306DB009384FCFF5B
:1034F00063E8660163F656019384ECFFB3866601C8
:10350000B38A564193050C0013850A00EF00006151
:1035100093050500930C050013850B00EF00405D3B
:10352000930B050093050C0013850A00EF008063E0
:103530001397090113150501135707013367A700F6
:1035400093860C00637E77013307EB009386FCFFC4
:1035500063686701637677019386ECFF3307670141
:1035600093970401370E0100B3E7D7001303FEFF62
:10357000B3F86700337364003307774193DE0701C4
:10358000135404011385080093050300EF0040560F
:10359000130805009305040013850800EF0040554B
:1035A000930805009305030013850E00EF004054B7
:1035B000130305009305040013850E00EF0040532C
:1035C00093560801B3886800B386160113060500F8
:1035D00063F466003306C50193D506013386C50042
:1035E0006366C702E31AC7BC370601001306F6FF7D
:1035F000B3F6C600939606013378C80033172A0144
:10360000B386060113090000E37AD7CC9387F7FF4E
:103610006FF09FBA13090000930700006FF01FCCF2
:10362000130101FD2324810223229102232611028A
:1036300023202103232E3101232C4101232A510170
:103640002328610123267101232481012322910172
:103650002320A1011304050093840500639C062424
:1036600093090600970600009386067F63FEC51245
:10367000B70701006370F6129337061093C717005F
:10368000939737003357F600B386E60003C706006A
:10369000B307F700130700023309F740630CF70084
:1036A000B3942501B357F500B3192601B3E497008D
:1036B0003314250193DA090193850A00139B09014C
:1036C00013850400EF008045135B0B0193050B008D
:1036D000EF000042130A050093850A0013850400D9
:1036E000EF0040481315050193570401B3E7A70005
:1036F00063FA4701B387F90063E6370163F44701D2
:10370000B3873701B384474193850A0013850400CA
:10371000EF00C04093050B00EF00803D130A050049
:1037200093850A0013850400EF00C04313140401BD
:1037300013150501135404013364A400637A440192
:1037400033848900636634016374440133043401B3
:103750003304444133552401930500008320C10202
:103760000324810283244102032901028329C10128
:10377000032A8101832A4101032B0101832BC1000C
:10378000032C8100832C4100032D01001301010350
:10379000678000003707000193070001E364E6EE4D
:1037A000930780016FF01FEE13070000630C060003
:1037B000B70701006376F60E13370610134717009C
:1037C00013173700B357E600B386F60083C7060029
:1037D000B384C540B387E700130700023309F740FD
:1037E000E30AF7ECB3192601B3DBF50013DB09019B
:1037F000B357F500B395250133EAB700331425011B
:1038000093050B00939A090113850B00EF0000311B
:1038100093DA0A0193850A00EF00802D93040500D6
:1038200093050B0013850B00EF00C0331315050142
:1038300013570A013367A700637A97003387E900BB
:10384000636637016374970033073701B304974009
:1038500093050B0013850400EF00402C93850A00AC
:10386000EF000029930A050093050B00138504005F
:10387000EF00402F93170A011315050193D7070195
:10388000B3E7A70063FA5701B387F90063E637018E
:1038900063F45701B3873701B38457416FF09FE159
:1038A000B707000113070001E36EF6F0130780016C
:1038B0006FF05FF1E3E4D5EAB707010063FEF604B9
:1038C00093B7061093C717009397370033D8F600C5
:1038D000170700001307475833070701834A0700FB
:1038E000B38AFA0093070002338A57416390570561
:1038F00063E4B600636CC5003309C540B386D540A8
:10390000B334250113040900B38496401305040061
:10391000938504006FF09FE43707000193070001CF
:10392000E3E6E6FA930780016FF05FFAB39646018B
:10393000B35B5601B3EBDB00B3D9550133545501EA
:10394000B395450193D40B013364B400331B450197
:103950009385040013850900139C0B01331946015C
:10396000135C0C01EF00801B93050500130D05008F
:1039700013050C00EF00C017930C0500938504009D
:1039800013850900EF00001E13150501935704016C
:10399000B3E7A70093090D0063FE9701B387FB000F
:1039A0009309FDFF63E8770163F697019309EDFF43
:1039B000B3877701B38C97419385040013850C007E
:1039C000EF00C01593050500130D050013050C004D
:1039D000EF00001293850400130C050013850C0002
:1039E000EF004018931504011315050193D5050147
:1039F000B3E5A50093070D0063FE8501B385BB0009
:103A00009307FDFF63E8750163F685019307EDFFFA
:103A1000B3857501370E010093990901B3E9F900E7
:103A20009307FEFF33F7F900B377F900B3848541BC
:103A300093D9090113530901130507009385070062
:103A4000EF00000B130805009305030013050700A2
:103A5000EF00000A1307050093850700138509008E
:103A6000EF00000993080500930503001385090082
:103A7000EF0000089357080133071701B387E700E9
:103A80009306050063F41701B306C50113D70701B8
:103A90003307D700B70601009386F6FFB3F7D700C8
:103AA000939707013378D800B387070163E6E400F2
:103AB000639EE400637CFB0033892741B3B6270192
:103AC000B3867601930709003307D740B307FB405D
:103AD000333BFB00B385E440B3856541B39A5501A0
:103AE000B3D7470133E5FA00B3D545016FF01FC7DF
:103AF000130605001305000093F615006384060005
:103B00003305C50093D5150013161600E39605FE80
:103B1000678000006340050663C60506138605003E
:103B2000930505001305F0FF630C060293061000D1
:103B3000637AB6006358C0001316160093961600F9
:103B4000E36AB6FE1305000063E6C500B385C54011
:103B50003365D50093D6160013561600E39606FE7D
:103B60006780000093820000EFF05FFB1385050083
:103B7000678002003305A0406348B000B305B04041
:103B80006FF0DFF9B305B04093820000EFF01FF94A
:103B90003305A040678002009382000063CA0500DD
:103BA000634C0500EFF09FF7138505006780020066
:103BB000B305B040E35805FE3305A040EFF01FF613
:083BC0003305B04067800200EC
:103BC800130101E52322911A232C41191305100032
:103BD8009704000093840461130A01002324811AC6
:103BE8002320211B232E31192326111A1704000024
:103BF80013044446EFE0DF999389040013090A008F
:103C080083A504000325040013044400938444009E
:103C1800EFE08FBE2320A90013094900E31234FF07
:103C280013050000EFE0DF9697070000938787747D
:103C380013050000130840066F00800113052500D6
:103C48006394C502130A8A0093878700630E0503ED
:103C580083260A0003A7070083254A0003A6470016
:103C6800E38EE6FC130515008320C11A0324811A8C
:103C78008324411A0329011A8329C119032A8119A6
:103C88001301011B67800000130500006FF0DFFDC2
:103C9800130101FF170500001305C50323261100B2
:103CA800EFE09F988320C1001305F0FF1301010185
:043CB8006780000021
:103CBC00286E756C6C2900006D6379636C6500006F
:103CCC006D696E737472657400000000496D706CE0
:103CDC00656D656E74206D61696E28292C20666F88
:0D3CEC006F210A002573203D2025640A0089
:103CFC0048E5FFFFDCE4FFFF54E5FFFFDCE4FFFFDA
:103D0C00DCE4FFFFDCE4FFFFDCE4FFFF64E5FFFF26
:103D1C00DCE4FFFFDCE4FFFFBCE4FFFFE0E7FFFFB8
:103D2C00DCE4FFFFBCE4FFFFF0E4FFFFF0E4FFFF87
:103D3C00F0E4FFFFF0E4FFFFF0E4FFFFF0E4FFFF2F
:103D4C00F0E4FFFFF0E4FFFFF0E4FFFFDCE4FFFF33
:103D5C00DCE4FFFFDCE4FFFFDCE4FFFFDCE4FFFF5F
:103D6C00DCE4FFFFDCE4FFFFDCE4FFFFDCE4FFFF4F
:103D7C00DCE4FFFFDCE4FFFFDCE4FFFFDCE4FFFF3F
:103D8C00DCE4FFFFDCE4FFFFDCE4FFFFDCE4FFFF2F
:103D9C00DCE4FFFFDCE4FFFFDCE4FFFFDCE4FFFF1F
:103DAC00DCE4FFFFDCE4FFFFDCE4FFFFDCE4FFFF0F
:103DBC00DCE4FFFFDCE4FFFFDCE4FFFFDCE4FFFFFF
:103DCC00DCE4FFFFDCE4FFFFDCE4FFFFDCE4FFFFEF
:103DDC00DCE4FFFFDCE4FFFFDCE4FFFFDCE4FFFFDF
:103DEC00DCE4FFFFDCE4FFFFDCE4FFFFDCE4FFFFCF
:103DFC00F8E7FFFF84E6FFFFDCE4FFFFDCE4FFFFF6
:103E0C00DCE4FFFFDCE4FFFFDCE4FFFFDCE4FFFFAE
:103E1C00DCE4FFFFCCE6FFFFDCE4FFFFDCE4FFFFAC
:103E2C0070E8FFFF80E5FFFFDCE4FFFFDCE4FFFF51
:103E3C00F8E6FFFFDCE4FFFF64E8FFFFDCE4FFFFD4
:103E4C00DCE4FFFFDCE6FFFF0001020203030303D7
:103E5C00040404040404040405050505050505050E
:103E6C0005050505050505050606060606060606EE
:103E7C0006060606060606060606060606060606D6
:103E8C0006060606060606060707070707070707BE
:103E9C0007070707070707070707070707070707A6
:103EAC000707070707070707070707070707070796
:103EBC000707070707070707070707070707070786
:103ECC00070707070707070708080808080808086E
:103EDC000808080808080808080808080808080856
:103EEC000808080808080808080808080808080846
:103EFC000808080808080808080808080808080836
:103F0C000808080808080808080808080808080825
:103F1C000808080808080808080808080808080815
:103F2C000808080808080808080808080808080805
:103F3C0008080808080808080808080808080808F5
:083F4C0008080808080808082D
:103F54001000000000000000037A5200017C0101FF
:103F64001B0D02005000000018000000D4EBFFFFFE
:103F74001805000000440E407489038101880292F0
:103F84000493059406950796089709980A990B9A3D
:103F94000C9B0D0350010AC144C844C944D244D304
:103FA40044D444D544D644D744D844D944DA44DB31
:103FB400440E00440B000000480000006C000000A8
:103FC40098F0FFFFC405000000440E306C94068195
:103FD4000188028903920493059507960897099826
:103FE4000A990B0354020AC144C844C944D344D4B3
:103FF40044D544D644D744D844D94CD2440E004482
:104004000B0000004C000000B800000010F6FFFF99
:10401400D004000000440E307088028903810192AC
:104024000493059406950796089709980A990B9A9C
:104034000C030C010AC144C844C944D244D344D437
:1040440044D544D644D744D844D944DA440E004431
:044054000B0000005D
:1040580029000000C6010000410300004F010000D4
:104068003402000001000000BB000000DD03000076
:10407800ED0200006D0100005E0100003C0200003E
:104088008400000040000000B50300009900000013
:1040980048020000D8000000250300008C00000042
:1040A8006D020000D2000000060000003C02000083
:1040B800A3030000530100007A030000510200002E
:1040C8008801000082030000B6020000E40000003E
:1040D800C10300000C0000006E0000007303000024
:1040E80074000000EE0200002801000086020000B3
:1040F800AA010000F40100003A010000B401000028
:1041080093020000BD020000060300002C0300001B
:104118003F010000D5030000A60200009600000041
:104128006B030000B80200007801000034020000B0
:10413800DA01000010010000AA03000002010000DB
:104148001B0200008702000039020000FD01000088
:10415800CB0000005800000018010000BF0200005A
:10416800F70200009D0200005E02000077010000D7
:10417800FF0100002702000091020000A8030000D0
:10418800C300000050020000510000003902000086
:104198000B010000B8030000E50000002003000048
:1041A8005101000048020000B00300008302000033
:1041B8008603000070010000F1000000E901000022
:1041C80091030000480100003A0300003901000093
:1041D800A503000050020000D9030000840100007C
:1041E800C30000001F020000C00300008902000095
:1041F80036020000D30300005E010000E503000062
:10420800890200002E030000910200004F00000008
:10421800B5000000D00000006F000000E6030000B9
:104228005B03000075020000410000004F0300001E
:1042380020010000C00200005D010000E50300004D
:104248008D000000FD00000089030000CB02000083
:1042580076030000AE010000080100009F01000085
:10426800400200001A020000D3030000BC02000054
:10427800F902000004000000F1000000EE01000057
:10428800DE01000064000000F3010000600300008C
:1042980093010000B5020000DE000000A00100004C
:1042A800BC01000028010000D10200001D0100002F
:1042B800A40200006C0200003D0100004E00000056
:1042C800E00000005F010000A90300001C020000DC
:1042D800200100008602000077000000A90000000D
:1042E800670200000F0200005E02000021010000CA
:1042F800850100001C0300005F010000210300008D
:10430800C7010000D002000016010000F6020000FC
:104318006F010000E9020000660100005C00000077
:1043280048020000DD0300003E0000000F0100000D
:10433800D903000055030000930100001403000096
:104348005A0100001302000005020000DE00000010
:104358002F020000CD0100008C030000F1000000D6
:104368000703000066010000FF0000004C01000088
:104378003B1F0000FAC20300C0330C004751030082
:10438800F8DE0400D3030000AAFF0000B10B0F0001
:10439800D56A0700968804003E82030084B00000B6
:1043A800545D0000003400007B9B0100765402003D
:1043B80098A70700B812020065CC000034CF0100AE
:1043C800A0BA0200804102002E080000ACB3080029
:1043D800C7000200074F01004A4A0C003B7806005C
:1043E800B04C05005CE40500B0CB02009C710100F4
:1043F8004072080038190000AAA40100746E090070
:10440800D4580100B80B0000A816010094DE04007F
:104418006C1B030050C300000E64020080BF05003F
:10442800690D0400A1690700349F02008027050078
:1044380044290200486E040086750700FEA60000A5
:104448008C060900A095060098D10100D8AB0000A1
:10445800C09E0100F07401003A690D003820020086
:10446800605E0200AA6006007F0801000550010096
:10447800ADE7010028B50000D09602009F1903009F
:10448800538104002C200800E23E030057950400E5
:10449800398C0300B00D060076C9020070D30A00FB
:1044A8008D170100D0BA0600467100007CCC0000D0
:1044B80018610200D85D0E0076370000E04E030058
:1044C800A9100500E899070010CE05003CBB0700BD
:1044D8001CC3040050FB0200B5E601000EA8010051
:1044E8009FC90700A84E0200B8710B00A926010059
:1044F80083080B00E03B030027D5030030F70100D9
:040000058000000077
:00000001FF
